{
  "_format": "hh-sol-artifact-1",
  "contractName": "FiredGuys",
  "sourceName": "contracts/MyNFT.sol",
  "abi": [
    {
      "inputs": [],
      "stateMutability": "nonpayable",
      "type": "constructor"
    },
    {
      "anonymous": false,
      "inputs": [
        {
          "indexed": true,
          "internalType": "address",
          "name": "owner",
          "type": "address"
        },
        {
          "indexed": true,
          "internalType": "address",
          "name": "approved",
          "type": "address"
        },
        {
          "indexed": true,
          "internalType": "uint256",
          "name": "tokenId",
          "type": "uint256"
        }
      ],
      "name": "Approval",
      "type": "event"
    },
    {
      "anonymous": false,
      "inputs": [
        {
          "indexed": true,
          "internalType": "address",
          "name": "owner",
          "type": "address"
        },
        {
          "indexed": true,
          "internalType": "address",
          "name": "operator",
          "type": "address"
        },
        {
          "indexed": false,
          "internalType": "bool",
          "name": "approved",
          "type": "bool"
        }
      ],
      "name": "ApprovalForAll",
      "type": "event"
    },
    {
      "anonymous": false,
      "inputs": [
        {
          "indexed": true,
          "internalType": "address",
          "name": "previousOwner",
          "type": "address"
        },
        {
          "indexed": true,
          "internalType": "address",
          "name": "newOwner",
          "type": "address"
        }
      ],
      "name": "OwnershipTransferred",
      "type": "event"
    },
    {
      "anonymous": false,
      "inputs": [
        {
          "indexed": true,
          "internalType": "address",
          "name": "from",
          "type": "address"
        },
        {
          "indexed": true,
          "internalType": "address",
          "name": "to",
          "type": "address"
        },
        {
          "indexed": true,
          "internalType": "uint256",
          "name": "tokenId",
          "type": "uint256"
        }
      ],
      "name": "Transfer",
      "type": "event"
    },
    {
      "inputs": [
        {
          "internalType": "address",
          "name": "to",
          "type": "address"
        },
        {
          "internalType": "uint256",
          "name": "tokenId",
          "type": "uint256"
        }
      ],
      "name": "approve",
      "outputs": [],
      "stateMutability": "nonpayable",
      "type": "function"
    },
    {
      "inputs": [
        {
          "internalType": "address",
          "name": "owner",
          "type": "address"
        }
      ],
      "name": "balanceOf",
      "outputs": [
        {
          "internalType": "uint256",
          "name": "",
          "type": "uint256"
        }
      ],
      "stateMutability": "view",
      "type": "function"
    },
    {
      "inputs": [],
      "name": "count",
      "outputs": [
        {
          "internalType": "uint256",
          "name": "",
          "type": "uint256"
        }
      ],
      "stateMutability": "view",
      "type": "function"
    },
    {
      "inputs": [
        {
          "internalType": "uint256",
          "name": "tokenId",
          "type": "uint256"
        }
      ],
      "name": "getApproved",
      "outputs": [
        {
          "internalType": "address",
          "name": "",
          "type": "address"
        }
      ],
      "stateMutability": "view",
      "type": "function"
    },
    {
      "inputs": [
        {
          "internalType": "address",
          "name": "owner",
          "type": "address"
        },
        {
          "internalType": "address",
          "name": "operator",
          "type": "address"
        }
      ],
      "name": "isApprovedForAll",
      "outputs": [
        {
          "internalType": "bool",
          "name": "",
          "type": "bool"
        }
      ],
      "stateMutability": "view",
      "type": "function"
    },
    {
      "inputs": [
        {
          "internalType": "string",
          "name": "uri",
          "type": "string"
        }
      ],
      "name": "isContentOwned",
      "outputs": [
        {
          "internalType": "bool",
          "name": "",
          "type": "bool"
        }
      ],
      "stateMutability": "view",
      "type": "function"
    },
    {
      "inputs": [],
      "name": "name",
      "outputs": [
        {
          "internalType": "string",
          "name": "",
          "type": "string"
        }
      ],
      "stateMutability": "view",
      "type": "function"
    },
    {
      "inputs": [],
      "name": "owner",
      "outputs": [
        {
          "internalType": "address",
          "name": "",
          "type": "address"
        }
      ],
      "stateMutability": "view",
      "type": "function"
    },
    {
      "inputs": [
        {
          "internalType": "uint256",
          "name": "tokenId",
          "type": "uint256"
        }
      ],
      "name": "ownerOf",
      "outputs": [
        {
          "internalType": "address",
          "name": "",
          "type": "address"
        }
      ],
      "stateMutability": "view",
      "type": "function"
    },
    {
      "inputs": [
        {
          "internalType": "address",
          "name": "recipient",
          "type": "address"
        },
        {
          "internalType": "string",
          "name": "metadataURI",
          "type": "string"
        }
      ],
      "name": "payToMint",
      "outputs": [
        {
          "internalType": "uint256",
          "name": "",
          "type": "uint256"
        }
      ],
      "stateMutability": "payable",
      "type": "function"
    },
    {
      "inputs": [],
      "name": "renounceOwnership",
      "outputs": [],
      "stateMutability": "nonpayable",
      "type": "function"
    },
    {
      "inputs": [
        {
          "internalType": "address",
          "name": "to",
          "type": "address"
        },
        {
          "internalType": "string",
          "name": "uri",
          "type": "string"
        }
      ],
      "name": "safeMint",
      "outputs": [],
      "stateMutability": "nonpayable",
      "type": "function"
    },
    {
      "inputs": [
        {
          "internalType": "address",
          "name": "from",
          "type": "address"
        },
        {
          "internalType": "address",
          "name": "to",
          "type": "address"
        },
        {
          "internalType": "uint256",
          "name": "tokenId",
          "type": "uint256"
        }
      ],
      "name": "safeTransferFrom",
      "outputs": [],
      "stateMutability": "nonpayable",
      "type": "function"
    },
    {
      "inputs": [
        {
          "internalType": "address",
          "name": "from",
          "type": "address"
        },
        {
          "internalType": "address",
          "name": "to",
          "type": "address"
        },
        {
          "internalType": "uint256",
          "name": "tokenId",
          "type": "uint256"
        },
        {
          "internalType": "bytes",
          "name": "data",
          "type": "bytes"
        }
      ],
      "name": "safeTransferFrom",
      "outputs": [],
      "stateMutability": "nonpayable",
      "type": "function"
    },
    {
      "inputs": [
        {
          "internalType": "address",
          "name": "operator",
          "type": "address"
        },
        {
          "internalType": "bool",
          "name": "approved",
          "type": "bool"
        }
      ],
      "name": "setApprovalForAll",
      "outputs": [],
      "stateMutability": "nonpayable",
      "type": "function"
    },
    {
      "inputs": [
        {
          "internalType": "bytes4",
          "name": "interfaceId",
          "type": "bytes4"
        }
      ],
      "name": "supportsInterface",
      "outputs": [
        {
          "internalType": "bool",
          "name": "",
          "type": "bool"
        }
      ],
      "stateMutability": "view",
      "type": "function"
    },
    {
      "inputs": [],
      "name": "symbol",
      "outputs": [
        {
          "internalType": "string",
          "name": "",
          "type": "string"
        }
      ],
      "stateMutability": "view",
      "type": "function"
    },
    {
      "inputs": [
        {
          "internalType": "uint256",
          "name": "tokenId",
          "type": "uint256"
        }
      ],
      "name": "tokenURI",
      "outputs": [
        {
          "internalType": "string",
          "name": "",
          "type": "string"
        }
      ],
      "stateMutability": "view",
      "type": "function"
    },
    {
      "inputs": [
        {
          "internalType": "address",
          "name": "from",
          "type": "address"
        },
        {
          "internalType": "address",
          "name": "to",
          "type": "address"
        },
        {
          "internalType": "uint256",
          "name": "tokenId",
          "type": "uint256"
        }
      ],
      "name": "transferFrom",
      "outputs": [],
      "stateMutability": "nonpayable",
      "type": "function"
    },
    {
      "inputs": [
        {
          "internalType": "address",
          "name": "newOwner",
          "type": "address"
        }
      ],
      "name": "transferOwnership",
      "outputs": [],
      "stateMutability": "nonpayable",
      "type": "function"
    }
  ],
  "bytecode": "0x60806040523480156200001157600080fd5b506040518060400160405280600981526020017f46697265644775797300000000000000000000000000000000000000000000008152506040518060400160405280600381526020017f4659520000000000000000000000000000000000000000000000000000000000815250816000908051906020019062000096929190620001a6565b508060019080519060200190620000af929190620001a6565b505050620000d2620000c6620000d860201b60201c565b620000e060201b60201c565b620002bb565b600033905090565b6000600760009054906101000a900473ffffffffffffffffffffffffffffffffffffffff16905081600760006101000a81548173ffffffffffffffffffffffffffffffffffffffff021916908373ffffffffffffffffffffffffffffffffffffffff1602179055508173ffffffffffffffffffffffffffffffffffffffff168173ffffffffffffffffffffffffffffffffffffffff167f8be0079c531659141344cd1fd0a4f28419497f9722a3daafe3b4186f6b6457e060405160405180910390a35050565b828054620001b49062000256565b90600052602060002090601f016020900481019282620001d8576000855562000224565b82601f10620001f357805160ff191683800117855562000224565b8280016001018555821562000224579182015b828111156200022357825182559160200191906001019062000206565b5b50905062000233919062000237565b5090565b5b808211156200025257600081600090555060010162000238565b5090565b600060028204905060018216806200026f57607f821691505b602082108114156200028657620002856200028c565b5b50919050565b7f4e487b7100000000000000000000000000000000000000000000000000000000600052602260045260246000fd5b61339580620002cb6000396000f3fe60806040526004361061011f5760003560e01c8063715018a6116100a0578063b88d4fde11610064578063b88d4fde146103ec578063c87b56dd14610415578063d204c45e14610452578063e985e9c51461047b578063f2fde38b146104b85761011f565b8063715018a6146103195780638da5cb5b1461033057806395d89b411461035b5780639f1cabc614610386578063a22cb465146103c35761011f565b806323b872dd116100e757806323b872dd1461021d57806342842e0e14610246578063615fd9e21461026f5780636352211e1461029f57806370a08231146102dc5761011f565b806301ffc9a71461012457806306661abd1461016157806306fdde031461018c578063081812fc146101b7578063095ea7b3146101f4575b600080fd5b34801561013057600080fd5b5061014b6004803603810190610146919061255c565b6104e1565b60405161015891906129ba565b60405180910390f35b34801561016d57600080fd5b506101766105c3565b6040516101839190612bf7565b60405180910390f35b34801561019857600080fd5b506101a16105d4565b6040516101ae91906129d5565b60405180910390f35b3480156101c357600080fd5b506101de60048036038101906101d991906125ef565b610666565b6040516101eb9190612953565b60405180910390f35b34801561020057600080fd5b5061021b60048036038101906102169190612520565b6106ac565b005b34801561022957600080fd5b50610244600480360381019061023f91906123c6565b6107c4565b005b34801561025257600080fd5b5061026d600480360381019061026891906123c6565b610824565b005b610289600480360381019061028491906124cc565b610844565b6040516102969190612bf7565b60405180910390f35b3480156102ab57600080fd5b506102c660048036038101906102c191906125ef565b610970565b6040516102d39190612953565b60405180910390f35b3480156102e857600080fd5b5061030360048036038101906102fe9190612361565b6109f7565b6040516103109190612bf7565b60405180910390f35b34801561032557600080fd5b5061032e610aaf565b005b34801561033c57600080fd5b50610345610ac3565b6040516103529190612953565b60405180910390f35b34801561036757600080fd5b50610370610aed565b60405161037d91906129d5565b60405180910390f35b34801561039257600080fd5b506103ad60048036038101906103a891906125ae565b610b7f565b6040516103ba91906129ba565b60405180910390f35b3480156103cf57600080fd5b506103ea60048036038101906103e59190612490565b610bba565b005b3480156103f857600080fd5b50610413600480360381019061040e9190612415565b610bd0565b005b34801561042157600080fd5b5061043c600480360381019061043791906125ef565b610c32565b60405161044991906129d5565b60405180910390f35b34801561045e57600080fd5b50610479600480360381019061047491906124cc565b610c44565b005b34801561048757600080fd5b506104a2600480360381019061049d919061238a565b610cb5565b6040516104af91906129ba565b60405180910390f35b3480156104c457600080fd5b506104df60048036038101906104da9190612361565b610d49565b005b60007f80ac58cd000000000000000000000000000000000000000000000000000000007bffffffffffffffffffffffffffffffffffffffffffffffffffffffff1916827bffffffffffffffffffffffffffffffffffffffffffffffffffffffff191614806105ac57507f5b5e139f000000000000000000000000000000000000000000000000000000007bffffffffffffffffffffffffffffffffffffffffffffffffffffffff1916827bffffffffffffffffffffffffffffffffffffffffffffffffffffffff1916145b806105bc57506105bb82610dcd565b5b9050919050565b60006105cf6008610e37565b905090565b6060600080546105e390612e1c565b80601f016020809104026020016040519081016040528092919081815260200182805461060f90612e1c565b801561065c5780601f106106315761010080835404028352916020019161065c565b820191906000526020600020905b81548152906001019060200180831161063f57829003601f168201915b5050505050905090565b600061067182610e45565b6004600083815260200190815260200160002060009054906101000a900473ffffffffffffffffffffffffffffffffffffffff169050919050565b60006106b782610970565b90508073ffffffffffffffffffffffffffffffffffffffff168373ffffffffffffffffffffffffffffffffffffffff161415610728576040517f08c379a000000000000000000000000000000000000000000000000000000000815260040161071f90612b77565b60405180910390fd5b8073ffffffffffffffffffffffffffffffffffffffff16610747610e90565b73ffffffffffffffffffffffffffffffffffffffff161480610776575061077581610770610e90565b610cb5565b5b6107b5576040517f08c379a00000000000000000000000000000000000000000000000000000000081526004016107ac90612b97565b60405180910390fd5b6107bf8383610e98565b505050565b6107d56107cf610e90565b82610f51565b610814576040517f08c379a000000000000000000000000000000000000000000000000000000000815260040161080b906129f7565b60405180910390fd5b61081f838383610fe6565b505050565b61083f83838360405180602001604052806000815250610bd0565b505050565b600060016009836040516108589190612918565b908152602001604051809103902060009054906101000a900460ff1660ff1614156108b8576040517f08c379a00000000000000000000000000000000000000000000000000000000081526004016108af90612bb7565b60405180910390fd5b66b1a2bc2ec50000341015610902576040517f08c379a00000000000000000000000000000000000000000000000000000000081526004016108f990612bd7565b60405180910390fd5b600061090e6008610e37565b905061091a60086112e0565b600160098460405161092c9190612918565b908152602001604051809103902060006101000a81548160ff021916908360ff16021790555061095c84826112f6565b6109668184611514565b8091505092915050565b60008061097c83611588565b9050600073ffffffffffffffffffffffffffffffffffffffff168173ffffffffffffffffffffffffffffffffffffffff1614156109ee576040517f08c379a00000000000000000000000000000000000000000000000000000000081526004016109e590612b57565b60405180910390fd5b80915050919050565b60008073ffffffffffffffffffffffffffffffffffffffff168273ffffffffffffffffffffffffffffffffffffffff161415610a68576040517f08c379a0000000000000000000000000000000000000000000000000000000008152600401610a5f90612ad7565b60405180910390fd5b600360008373ffffffffffffffffffffffffffffffffffffffff1673ffffffffffffffffffffffffffffffffffffffff168152602001908152602001600020549050919050565b610ab76115c5565b610ac16000611643565b565b6000600760009054906101000a900473ffffffffffffffffffffffffffffffffffffffff16905090565b606060018054610afc90612e1c565b80601f0160208091040260200160405190810160405280929190818152602001828054610b2890612e1c565b8015610b755780601f10610b4a57610100808354040283529160200191610b75565b820191906000526020600020905b815481529060010190602001808311610b5857829003601f168201915b5050505050905090565b60006001600983604051610b939190612918565b908152602001604051809103902060009054906101000a900460ff1660ff16149050919050565b610bcc610bc5610e90565b8383611709565b5050565b610be1610bdb610e90565b83610f51565b610c20576040517f08c379a0000000000000000000000000000000000000000000000000000000008152600401610c17906129f7565b60405180910390fd5b610c2c84848484611876565b50505050565b6060610c3d826118d2565b9050919050565b610c4c6115c5565b6000610c586008610e37565b9050610c6460086112e0565b610c6e83826119e5565b610c788183611514565b6001600983604051610c8a9190612918565b908152602001604051809103902060006101000a81548160ff021916908360ff160217905550505050565b6000600560008473ffffffffffffffffffffffffffffffffffffffff1673ffffffffffffffffffffffffffffffffffffffff16815260200190815260200160002060008373ffffffffffffffffffffffffffffffffffffffff1673ffffffffffffffffffffffffffffffffffffffff16815260200190815260200160002060009054906101000a900460ff16905092915050565b610d516115c5565b600073ffffffffffffffffffffffffffffffffffffffff168173ffffffffffffffffffffffffffffffffffffffff161415610dc1576040517f08c379a0000000000000000000000000000000000000000000000000000000008152600401610db890612a37565b60405180910390fd5b610dca81611643565b50565b60007f01ffc9a7000000000000000000000000000000000000000000000000000000007bffffffffffffffffffffffffffffffffffffffffffffffffffffffff1916827bffffffffffffffffffffffffffffffffffffffffffffffffffffffff1916149050919050565b600081600001549050919050565b610e4e81611a03565b610e8d576040517f08c379a0000000000000000000000000000000000000000000000000000000008152600401610e8490612b57565b60405180910390fd5b50565b600033905090565b816004600083815260200190815260200160002060006101000a81548173ffffffffffffffffffffffffffffffffffffffff021916908373ffffffffffffffffffffffffffffffffffffffff160217905550808273ffffffffffffffffffffffffffffffffffffffff16610f0b83610970565b73ffffffffffffffffffffffffffffffffffffffff167f8c5be1e5ebec7d5bd14f71427d1e84f3dd0314c0f7b2291e5b200ac8c7c3b92560405160405180910390a45050565b600080610f5d83610970565b90508073ffffffffffffffffffffffffffffffffffffffff168473ffffffffffffffffffffffffffffffffffffffff161480610f9f5750610f9e8185610cb5565b5b80610fdd57508373ffffffffffffffffffffffffffffffffffffffff16610fc584610666565b73ffffffffffffffffffffffffffffffffffffffff16145b91505092915050565b8273ffffffffffffffffffffffffffffffffffffffff1661100682610970565b73ffffffffffffffffffffffffffffffffffffffff161461105c576040517f08c379a000000000000000000000000000000000000000000000000000000000815260040161105390612a57565b60405180910390fd5b600073ffffffffffffffffffffffffffffffffffffffff168273ffffffffffffffffffffffffffffffffffffffff1614156110cc576040517f08c379a00000000000000000000000000000000000000000000000000000000081526004016110c390612a97565b60405180910390fd5b6110d98383836001611a44565b8273ffffffffffffffffffffffffffffffffffffffff166110f982610970565b73ffffffffffffffffffffffffffffffffffffffff161461114f576040517f08c379a000000000000000000000000000000000000000000000000000000000815260040161114690612a57565b60405180910390fd5b6004600082815260200190815260200160002060006101000a81549073ffffffffffffffffffffffffffffffffffffffff02191690556001600360008573ffffffffffffffffffffffffffffffffffffffff1673ffffffffffffffffffffffffffffffffffffffff168152602001908152602001600020600082825403925050819055506001600360008473ffffffffffffffffffffffffffffffffffffffff1673ffffffffffffffffffffffffffffffffffffffff16815260200190815260200160002060008282540192505081905550816002600083815260200190815260200160002060006101000a81548173ffffffffffffffffffffffffffffffffffffffff021916908373ffffffffffffffffffffffffffffffffffffffff160217905550808273ffffffffffffffffffffffffffffffffffffffff168473ffffffffffffffffffffffffffffffffffffffff167fddf252ad1be2c89b69c2b068fc378daa952ba7f163c4a11628f55a4df523b3ef60405160405180910390a46112db8383836001611b6a565b505050565b6001816000016000828254019250508190555050565b600073ffffffffffffffffffffffffffffffffffffffff168273ffffffffffffffffffffffffffffffffffffffff161415611366576040517f08c379a000000000000000000000000000000000000000000000000000000000815260040161135d90612b17565b60405180910390fd5b61136f81611a03565b156113af576040517f08c379a00000000000000000000000000000000000000000000000000000000081526004016113a690612a77565b60405180910390fd5b6113bd600083836001611a44565b6113c681611a03565b15611406576040517f08c379a00000000000000000000000000000000000000000000000000000000081526004016113fd90612a77565b60405180910390fd5b6001600360008473ffffffffffffffffffffffffffffffffffffffff1673ffffffffffffffffffffffffffffffffffffffff16815260200190815260200160002060008282540192505081905550816002600083815260200190815260200160002060006101000a81548173ffffffffffffffffffffffffffffffffffffffff021916908373ffffffffffffffffffffffffffffffffffffffff160217905550808273ffffffffffffffffffffffffffffffffffffffff16600073ffffffffffffffffffffffffffffffffffffffff167fddf252ad1be2c89b69c2b068fc378daa952ba7f163c4a11628f55a4df523b3ef60405160405180910390a4611510600083836001611b6a565b5050565b61151d82611a03565b61155c576040517f08c379a000000000000000000000000000000000000000000000000000000000815260040161155390612af7565b60405180910390fd5b80600660008481526020019081526020016000209080519060200190611583929190612185565b505050565b60006002600083815260200190815260200160002060009054906101000a900473ffffffffffffffffffffffffffffffffffffffff169050919050565b6115cd610e90565b73ffffffffffffffffffffffffffffffffffffffff166115eb610ac3565b73ffffffffffffffffffffffffffffffffffffffff1614611641576040517f08c379a000000000000000000000000000000000000000000000000000000000815260040161163890612b37565b60405180910390fd5b565b6000600760009054906101000a900473ffffffffffffffffffffffffffffffffffffffff16905081600760006101000a81548173ffffffffffffffffffffffffffffffffffffffff021916908373ffffffffffffffffffffffffffffffffffffffff1602179055508173ffffffffffffffffffffffffffffffffffffffff168173ffffffffffffffffffffffffffffffffffffffff167f8be0079c531659141344cd1fd0a4f28419497f9722a3daafe3b4186f6b6457e060405160405180910390a35050565b8173ffffffffffffffffffffffffffffffffffffffff168373ffffffffffffffffffffffffffffffffffffffff161415611778576040517f08c379a000000000000000000000000000000000000000000000000000000000815260040161176f90612ab7565b60405180910390fd5b80600560008573ffffffffffffffffffffffffffffffffffffffff1673ffffffffffffffffffffffffffffffffffffffff16815260200190815260200160002060008473ffffffffffffffffffffffffffffffffffffffff1673ffffffffffffffffffffffffffffffffffffffff16815260200190815260200160002060006101000a81548160ff0219169083151502179055508173ffffffffffffffffffffffffffffffffffffffff168373ffffffffffffffffffffffffffffffffffffffff167f17307eab39ab6107e8899845ad3d59bd9653f200f220920489ca2b5937696c318360405161186991906129ba565b60405180910390a3505050565b611881848484610fe6565b61188d84848484611b70565b6118cc576040517f08c379a00000000000000000000000000000000000000000000000000000000081526004016118c390612a17565b60405180910390fd5b50505050565b60606118dd82610e45565b60006006600084815260200190815260200160002080546118fd90612e1c565b80601f016020809104026020016040519081016040528092919081815260200182805461192990612e1c565b80156119765780601f1061194b57610100808354040283529160200191611976565b820191906000526020600020905b81548152906001019060200180831161195957829003601f168201915b505050505090506000611987611d07565b905060008151141561199d5781925050506119e0565b6000825111156119d25780826040516020016119ba92919061292f565b604051602081830303815290604052925050506119e0565b6119db84611d44565b925050505b919050565b6119ff828260405180602001604052806000815250611dac565b5050565b60008073ffffffffffffffffffffffffffffffffffffffff16611a2583611588565b73ffffffffffffffffffffffffffffffffffffffff1614159050919050565b6001811115611b6457600073ffffffffffffffffffffffffffffffffffffffff168473ffffffffffffffffffffffffffffffffffffffff1614611ad85780600360008673ffffffffffffffffffffffffffffffffffffffff1673ffffffffffffffffffffffffffffffffffffffff1681526020019081526020016000206000828254611ad09190612d32565b925050819055505b600073ffffffffffffffffffffffffffffffffffffffff168373ffffffffffffffffffffffffffffffffffffffff1614611b635780600360008573ffffffffffffffffffffffffffffffffffffffff1673ffffffffffffffffffffffffffffffffffffffff1681526020019081526020016000206000828254611b5b9190612cdc565b925050819055505b5b50505050565b50505050565b6000611b918473ffffffffffffffffffffffffffffffffffffffff16611e07565b15611cfa578373ffffffffffffffffffffffffffffffffffffffff1663150b7a02611bba610e90565b8786866040518563ffffffff1660e01b8152600401611bdc949392919061296e565b602060405180830381600087803b158015611bf657600080fd5b505af1925050508015611c2757506040513d601f19601f82011682018060405250810190611c249190612585565b60015b611caa573d8060008114611c57576040519150601f19603f3d011682016040523d82523d6000602084013e611c5c565b606091505b50600081511415611ca2576040517f08c379a0000000000000000000000000000000000000000000000000000000008152600401611c9990612a17565b60405180910390fd5b805181602001fd5b63150b7a0260e01b7bffffffffffffffffffffffffffffffffffffffffffffffffffffffff1916817bffffffffffffffffffffffffffffffffffffffffffffffffffffffff191614915050611cff565b600190505b949350505050565b60606040518060400160405280600781526020017f697066733a2f2f00000000000000000000000000000000000000000000000000815250905090565b6060611d4f82610e45565b6000611d59611d07565b90506000815111611d795760405180602001604052806000815250611da4565b80611d8384611e2a565b604051602001611d9492919061292f565b6040516020818303038152906040525b915050919050565b611db683836112f6565b611dc36000848484611b70565b611e02576040517f08c379a0000000000000000000000000000000000000000000000000000000008152600401611df990612a17565b60405180910390fd5b505050565b6000808273ffffffffffffffffffffffffffffffffffffffff163b119050919050565b606060006001611e3984611f4e565b01905060008167ffffffffffffffff811115611e7e577f4e487b7100000000000000000000000000000000000000000000000000000000600052604160045260246000fd5b6040519080825280601f01601f191660200182016040528015611eb05781602001600182028036833780820191505090505b509050600082602001820190505b600115611f43578080600190039150507f3031323334353637383961626364656600000000000000000000000000000000600a86061a8153600a8581611f2d577f4e487b7100000000000000000000000000000000000000000000000000000000600052601260045260246000fd5b0494506000851415611f3e57611f43565b611ebe565b819350505050919050565b600080600090507a184f03e93ff9f4daa797ed6e38ed64bf6a1f0100000000000000008310611fd2577a184f03e93ff9f4daa797ed6e38ed64bf6a1f0100000000000000008381611fc8577f4e487b7100000000000000000000000000000000000000000000000000000000600052601260045260246000fd5b0492506040810190505b6d04ee2d6d415b85acef81000000008310612035576d04ee2d6d415b85acef8100000000838161202b577f4e487b7100000000000000000000000000000000000000000000000000000000600052601260045260246000fd5b0492506020810190505b662386f26fc10000831061208a57662386f26fc100008381612080577f4e487b7100000000000000000000000000000000000000000000000000000000600052601260045260246000fd5b0492506010810190505b6305f5e10083106120d9576305f5e10083816120cf577f4e487b7100000000000000000000000000000000000000000000000000000000600052601260045260246000fd5b0492506008810190505b612710831061212457612710838161211a577f4e487b7100000000000000000000000000000000000000000000000000000000600052601260045260246000fd5b0492506004810190505b6064831061216d5760648381612163577f4e487b7100000000000000000000000000000000000000000000000000000000600052601260045260246000fd5b0492506002810190505b600a831061217c576001810190505b80915050919050565b82805461219190612e1c565b90600052602060002090601f0160209004810192826121b357600085556121fa565b82601f106121cc57805160ff19168380011785556121fa565b828001600101855582156121fa579182015b828111156121f95782518255916020019190600101906121de565b5b509050612207919061220b565b5090565b5b8082111561222457600081600090555060010161220c565b5090565b600061223b61223684612c37565b612c12565b90508281526020810184848401111561225357600080fd5b61225e848285612dda565b509392505050565b600061227961227484612c68565b612c12565b90508281526020810184848401111561229157600080fd5b61229c848285612dda565b509392505050565b6000813590506122b381613303565b92915050565b6000813590506122c88161331a565b92915050565b6000813590506122dd81613331565b92915050565b6000815190506122f281613331565b92915050565b600082601f83011261230957600080fd5b8135612319848260208601612228565b91505092915050565b600082601f83011261233357600080fd5b8135612343848260208601612266565b91505092915050565b60008135905061235b81613348565b92915050565b60006020828403121561237357600080fd5b6000612381848285016122a4565b91505092915050565b6000806040838503121561239d57600080fd5b60006123ab858286016122a4565b92505060206123bc858286016122a4565b9150509250929050565b6000806000606084860312156123db57600080fd5b60006123e9868287016122a4565b93505060206123fa868287016122a4565b925050604061240b8682870161234c565b9150509250925092565b6000806000806080858703121561242b57600080fd5b6000612439878288016122a4565b945050602061244a878288016122a4565b935050604061245b8782880161234c565b925050606085013567ffffffffffffffff81111561247857600080fd5b612484878288016122f8565b91505092959194509250565b600080604083850312156124a357600080fd5b60006124b1858286016122a4565b92505060206124c2858286016122b9565b9150509250929050565b600080604083850312156124df57600080fd5b60006124ed858286016122a4565b925050602083013567ffffffffffffffff81111561250a57600080fd5b61251685828601612322565b9150509250929050565b6000806040838503121561253357600080fd5b6000612541858286016122a4565b92505060206125528582860161234c565b9150509250929050565b60006020828403121561256e57600080fd5b600061257c848285016122ce565b91505092915050565b60006020828403121561259757600080fd5b60006125a5848285016122e3565b91505092915050565b6000602082840312156125c057600080fd5b600082013567ffffffffffffffff8111156125da57600080fd5b6125e684828501612322565b91505092915050565b60006020828403121561260157600080fd5b600061260f8482850161234c565b91505092915050565b61262181612d66565b82525050565b61263081612d78565b82525050565b600061264182612c99565b61264b8185612caf565b935061265b818560208601612de9565b61266481612f0c565b840191505092915050565b600061267a82612ca4565b6126848185612cc0565b9350612694818560208601612de9565b61269d81612f0c565b840191505092915050565b60006126b382612ca4565b6126bd8185612cd1565b93506126cd818560208601612de9565b80840191505092915050565b60006126e6602d83612cc0565b91506126f182612f1d565b604082019050919050565b6000612709603283612cc0565b915061271482612f6c565b604082019050919050565b600061272c602683612cc0565b915061273782612fbb565b604082019050919050565b600061274f602583612cc0565b915061275a8261300a565b604082019050919050565b6000612772601c83612cc0565b915061277d82613059565b602082019050919050565b6000612795602483612cc0565b91506127a082613082565b604082019050919050565b60006127b8601983612cc0565b91506127c3826130d1565b602082019050919050565b60006127db602983612cc0565b91506127e6826130fa565b604082019050919050565b60006127fe602e83612cc0565b915061280982613149565b604082019050919050565b6000612821602083612cc0565b915061282c82613198565b602082019050919050565b6000612844602083612cc0565b915061284f826131c1565b602082019050919050565b6000612867601883612cc0565b9150612872826131ea565b602082019050919050565b600061288a602183612cc0565b915061289582613213565b604082019050919050565b60006128ad603d83612cc0565b91506128b882613262565b604082019050919050565b60006128d0601383612cc0565b91506128db826132b1565b602082019050919050565b60006128f3600f83612cc0565b91506128fe826132da565b602082019050919050565b61291281612dd0565b82525050565b600061292482846126a8565b915081905092915050565b600061293b82856126a8565b915061294782846126a8565b91508190509392505050565b60006020820190506129686000830184612618565b92915050565b60006080820190506129836000830187612618565b6129906020830186612618565b61299d6040830185612909565b81810360608301526129af8184612636565b905095945050505050565b60006020820190506129cf6000830184612627565b92915050565b600060208201905081810360008301526129ef818461266f565b905092915050565b60006020820190508181036000830152612a10816126d9565b9050919050565b60006020820190508181036000830152612a30816126fc565b9050919050565b60006020820190508181036000830152612a508161271f565b9050919050565b60006020820190508181036000830152612a7081612742565b9050919050565b60006020820190508181036000830152612a9081612765565b9050919050565b60006020820190508181036000830152612ab081612788565b9050919050565b60006020820190508181036000830152612ad0816127ab565b9050919050565b60006020820190508181036000830152612af0816127ce565b9050919050565b60006020820190508181036000830152612b10816127f1565b9050919050565b60006020820190508181036000830152612b3081612814565b9050919050565b60006020820190508181036000830152612b5081612837565b9050919050565b60006020820190508181036000830152612b708161285a565b9050919050565b60006020820190508181036000830152612b908161287d565b9050919050565b60006020820190508181036000830152612bb0816128a0565b9050919050565b60006020820190508181036000830152612bd0816128c3565b9050919050565b60006020820190508181036000830152612bf0816128e6565b9050919050565b6000602082019050612c0c6000830184612909565b92915050565b6000612c1c612c2d565b9050612c288282612e4e565b919050565b6000604051905090565b600067ffffffffffffffff821115612c5257612c51612edd565b5b612c5b82612f0c565b9050602081019050919050565b600067ffffffffffffffff821115612c8357612c82612edd565b5b612c8c82612f0c565b9050602081019050919050565b600081519050919050565b600081519050919050565b600082825260208201905092915050565b600082825260208201905092915050565b600081905092915050565b6000612ce782612dd0565b9150612cf283612dd0565b9250827fffffffffffffffffffffffffffffffffffffffffffffffffffffffffffffffff03821115612d2757612d26612e7f565b5b828201905092915050565b6000612d3d82612dd0565b9150612d4883612dd0565b925082821015612d5b57612d5a612e7f565b5b828203905092915050565b6000612d7182612db0565b9050919050565b60008115159050919050565b60007fffffffff0000000000000000000000000000000000000000000000000000000082169050919050565b600073ffffffffffffffffffffffffffffffffffffffff82169050919050565b6000819050919050565b82818337600083830152505050565b60005b83811015612e07578082015181840152602081019050612dec565b83811115612e16576000848401525b50505050565b60006002820490506001821680612e3457607f821691505b60208210811415612e4857612e47612eae565b5b50919050565b612e5782612f0c565b810181811067ffffffffffffffff82111715612e7657612e75612edd565b5b80604052505050565b7f4e487b7100000000000000000000000000000000000000000000000000000000600052601160045260246000fd5b7f4e487b7100000000000000000000000000000000000000000000000000000000600052602260045260246000fd5b7f4e487b7100000000000000000000000000000000000000000000000000000000600052604160045260246000fd5b6000601f19601f8301169050919050565b7f4552433732313a2063616c6c6572206973206e6f7420746f6b656e206f776e6560008201527f72206f7220617070726f76656400000000000000000000000000000000000000602082015250565b7f4552433732313a207472616e7366657220746f206e6f6e20455243373231526560008201527f63656976657220696d706c656d656e7465720000000000000000000000000000602082015250565b7f4f776e61626c653a206e6577206f776e657220697320746865207a65726f206160008201527f6464726573730000000000000000000000000000000000000000000000000000602082015250565b7f4552433732313a207472616e736665722066726f6d20696e636f72726563742060008201527f6f776e6572000000000000000000000000000000000000000000000000000000602082015250565b7f4552433732313a20746f6b656e20616c7265616479206d696e74656400000000600082015250565b7f4552433732313a207472616e7366657220746f20746865207a65726f2061646460008201527f7265737300000000000000000000000000000000000000000000000000000000602082015250565b7f4552433732313a20617070726f766520746f2063616c6c657200000000000000600082015250565b7f4552433732313a2061646472657373207a65726f206973206e6f74206120766160008201527f6c6964206f776e65720000000000000000000000000000000000000000000000602082015250565b7f45524337323155524953746f726167653a2055524920736574206f66206e6f6e60008201527f6578697374656e7420746f6b656e000000000000000000000000000000000000602082015250565b7f4552433732313a206d696e7420746f20746865207a65726f2061646472657373600082015250565b7f4f776e61626c653a2063616c6c6572206973206e6f7420746865206f776e6572600082015250565b7f4552433732313a20696e76616c696420746f6b656e2049440000000000000000600082015250565b7f4552433732313a20617070726f76616c20746f2063757272656e74206f776e6560008201527f7200000000000000000000000000000000000000000000000000000000000000602082015250565b7f4552433732313a20617070726f76652063616c6c6572206973206e6f7420746f60008201527f6b656e206f776e6572206f7220617070726f76656420666f7220616c6c000000602082015250565b7f4e465420616c7265616479206d696e7465642100000000000000000000000000600082015250565b7f4e65656420746f20706179207570210000000000000000000000000000000000600082015250565b61330c81612d66565b811461331757600080fd5b50565b61332381612d78565b811461332e57600080fd5b50565b61333a81612d84565b811461334557600080fd5b50565b61335181612dd0565b811461335c57600080fd5b5056fea2646970667358221220ef17167599b48b46245be6bf2d922bfb66b5cad74a04b5122f313fc67ea14a7f64736f6c63430008040033",
  "linkReferences": {},
  "deployedLinkReferences": {}
}